:100000000C945D000C9485000C9485000C94850084
:100010000C9485000C9485000C9485000C9485004C
:100020000C9485000C9485000C9485000C9485003C
:100030000C9485000C9485000C9485000C9485002C
:100040000C9440020C9485000C94B0020C948A022B
:100050000C9485000C9485000C9485000C9485000C
:100060000C9485000C9485000000000024002700FB
:100070002A0000000000250028002B0004040404CE
:100080000404040402020202020203030303030342
:10009000010204081020408001020408102001021F
:1000A00004081020000000080002010000030407FB
:1000B0000000000000000000180411241FBECFEF54
:1000C000D8E0DEBFCDBF11E0A0E0B1E0EEEDF8E09A
:1000D00002C005900D92AE32B107D9F721E0AEE231
:1000E000B1E001C01D92A43DB207E1F710E0CDE5FB
:1000F000D0E004C02197FE010E946704CC35D107EF
:10010000C9F70E94E2020C946D040C940000E1EB2C
:10011000F0E02491EDE9F0E09491E9E8F0E0E49179
:10012000EE23C9F0222339F0233001F1A8F4213065
:1001300019F1223029F1F0E0EE0FFF1FEE58FF4FCA
:10014000A591B4912FB7F894EC91811126C09095A8
:100150009E239C932FBF08952730A9F02830C9F023
:10016000243049F7209180002F7D03C0209180002A
:100170002F7720938000DFCF24B52F7724BDDBCFEE
:1001800024B52F7DFBCF2091B0002F772093B000B6
:10019000D2CF2091B0002F7DF9CF9E2BDACF3FB781
:1001A000F8948091330190913401A0913501B09180
:1001B000360126B5A89B05C02F3F19F00196A11D59
:1001C000B11D3FBFBA2FA92F982F8827BC01CD01A1
:1001D000620F711D811D911D42E0660F771F881F00
:1001E000991F4A95D1F708958F929F92AF92BF922F
:1001F000CF92DF92EF92FF924B015C010E94CF0001
:100200006B017C010E94CF006C197D098E099F094A
:10021000683E734081059105A8F321E0821A910898
:10022000A108B10888EEC80E83E0D81EE11CF11CBD
:1002300081149104A104B10429F7FF90EF90DF909D
:10024000CF90BF90AF909F908F900895AF92BF9244
:10025000CF92DF92EF92FF920F931F93CF93DF9392
:100260006C017B018B01040F151FEB015E01AE18C1
:10027000BF08C017D10759F06991D601ED91FC91E3
:100280000190F081E02DC6010995892B79F7C50110
:10029000DF91CF911F910F91FF90EF90DF90CF9062
:1002A000BF90AF900895FC01538D448D252F30E011
:1002B000842F90E0821B930B541710F0CF96089573
:1002C00001970895FC01918D828D981761F0A28DA0
:1002D000AE0FBF2FB11D5D968C91928D9F5F9F7366
:1002E000928F90E008958FEF9FEF0895FC01918D1C
:1002F000828D981731F0828DE80FF11D858D90E089
:1003000008958FEF9FEF0895FC01918D228D892F25
:1003100090E0805C9F4F821B91098F73992708950D
:1003200087E391E00E94840121E0892B09F420E019
:10033000822F089580E090E0892B29F00E9490019F
:1003400081110C9400000895FC01A48DA80FB92F11
:10035000B11DA35ABF4F2C91848D90E001968F73ED
:100360009927848FA689B7892C93A089B1898C910C
:10037000837080648C93938D848D981306C002885B
:10038000F389E02D80818F7D80830895EF92FF9225
:100390000F931F93CF93DF93EC0181E0888F9B8DA8
:1003A0008C8D98131AC0E889F989808185FF15C062
:1003B0009FB7F894EE89FF896083E889F989808185
:1003C0008370806480839FBF81E090E0DF91CF9154
:1003D0001F910F91FF90EF900895F62E0B8D10E076
:1003E0000F5F1F4F0F731127E02E8C8D8E110CC0E5
:1003F0000FB607FCFACFE889F989808185FFF5CF30
:10040000CE010E94A401F1CFEB8DEC0FFD2FF11D69
:10041000E35AFF4FF0829FB7F8940B8FEA89FB896C
:1004200080818062CFCFCF93DF93EC01888D8823CA
:10043000B9F0AA89BB89E889F9898C9185FD03C047
:10044000808186FD0DC00FB607FCF7CF8C9185FF2C
:10045000F2CF808185FFEDCFCE010E94A401E9CFCC
:10046000DF91CF910895FC0101900020E9F73197C9
:10047000AF01481B590BBC0187E391E00C942601A6
:100480001F920F920FB60F9211242F933F938F93C9
:100490009F93AF93BF9380912F0190913001A091D2
:1004A0003101B091320130912E0123E0230F2D371D
:1004B00058F50196A11DB11D20932E0180932F01A7
:1004C00090933001A0933101B093320180913301B8
:1004D00090913401A0913501B09136010196A11D92
:1004E000B11D8093330190933401A0933501B093F3
:1004F0003601BF91AF919F918F913F912F910F90B6
:100500000FBE0F901F90189526E8230F0296A11D8D
:10051000B11DD2CF1F920F920FB60F9211242F93BD
:100520003F934F935F936F937F938F939F93AF937B
:10053000BF93EF93FF9387E391E00E94A401FF91A3
:10054000EF91BF91AF919F918F917F916F915F914B
:100550004F913F912F910F900FBE0F901F901895C4
:100560001F920F920FB60F9211242F938F939F9388
:10057000EF93FF93E0914701F09148018081E09172
:100580004D01F0914E0182FD1BC090818091500180
:100590008F5F8F7320915101821741F0E0915001DC
:1005A000F0E0E95CFE4F958F80935001FF91EF9151
:1005B0009F918F912F910F900FBE0F901F901895C4
:1005C0008081F4CFCF93DF93CDB7DEB7A9970FB675
:1005D000F894DEBF0FBECDBF789484B5826084BD31
:1005E00084B5816084BD85B5826085BD85B5816037
:1005F00085BD80916E00816080936E0010928100B5
:10060000809181008260809381008091810081606F
:100610008093810080918000816080938000809130
:10062000B10084608093B1008091B00081608093BC
:10063000B00080917A00846080937A0080917A0083
:10064000826080937A0080917A00816080937A0042
:1006500080917A00806880937A001092C100EDE961
:10066000F0E02491E9E8F0E08491882399F090E0AB
:10067000880F991FFC01E859FF4FA591B491FC0127
:10068000EE58FF4F859194918FB7F894EC91E22B3F
:10069000EC938FBFE0914701F091480182E08083A5
:1006A000E0914301F09144011082E0914501F09105
:1006B00046018FEC808310924F01E0914B01F09145
:1006C0004C0186E08083E0914901F0914A018081EC
:1006D00080618083E0914901F0914A0180818860C6
:1006E0008083E0914901F0914A0180818068808394
:1006F000E0914901F0914A0180818F7D80833E0124
:100700008AE2680E711C8AE0882E912CA12CB12CF3
:1007100088E0E0E0F1E0DE01929601900D928A958A
:10072000E1F77E0192E2E90EF11C8AE191E00E947C
:100730003302F701C190D1907F0116010D2C000CFE
:100740004408550857FE47C06DE287E391E00E94D8
:10075000C60122273327A901221933094409550963
:1007600019A28E010F5D1F4FCA01B901A5019401A5
:100770000E944504605DF80162938F0121153105E7
:100780004105510589F70115110519F0C8010E94AD
:10079000330284E291E00E9433028BE291E00E94F6
:1007A000330210E000E00C151D055CF581E00E94AD
:1007B000870060E971E080E090E00E94F40080E052
:1007C0000E94870060E971E080E090E00E94F40000
:1007D0000F5F1F4FE8CFA201910119A28E010F5D9B
:1007E0001F4FCA01B901A50194010E944504605D33
:1007F000F80162938F01211531054105510589F7F3
:10080000C2CF60E177E280E090E00E94F4006E14D5
:100810007F0409F08ACF80E090E0892B09F478CF3B
:100820000E949001882309F473CF0E94000070CFCA
:10083000E7E3F1E01382128288EE93E0A0E0B0E0FB
:1008400084839583A683B7838CE091E09183808332
:1008500085EC90E09587848784EC90E09787868785
:1008600080EC90E0918B808B81EC90E0938B828B7D
:1008700082EC90E0958B848B86EC90E0978B868B56
:10088000118E128E138E148E0895A1E21A2EAA1BB9
:10089000BB1BFD010DC0AA1FBB1FEE1FFF1FA21730
:1008A000B307E407F50720F0A21BB30BE40BF50B2D
:1008B000661F771F881F991F1A9469F760957095B6
:1008C000809590959B01AC01BD01CF010895EE0F7D
:0E08D000FF1F0590F491E02D0994F894FFCFDE
:1008DE00010002000300040000000000C601260112
:1008EE0053011302840162017601426C696E6B69D9
:0E08FE006E6720002074696D6573000D0A009E
:00000001FF
